:100000000C94CE000C94F6000C94F6000C94F600C0
:100010000C94F6000C94F6000C94F6000C94F60088
:100020000C94F6000C94F6000C94F9030C946804FC
:100030000C94F6000C94F6000C94F6000C94F60068
:100040000C94F6000C94F6000C94F6000C94F60058
:100050000C94F6000C94F6000C94F6000C949A069E
:100060000C94F6000C94F6000C94F6000C94F60038
:100070000C94F6000C94F6000C94F6000C94F60028
:100080000C94F6000C94F6000C94F6000C94F60018
:100090000C94F6000C94F6000C94F6000C94F60008
:1000A0000C94F6000C94F6000C94F600000000028C
:1000B00000090F0000030401000C00000000000014
:1000C0000000000000000000000000080B00020219
:1000D00002000009040000010202000005240010D3
:1000E000010524010101042402060524060001077C
:1000F00005810310004009040100020A0000000706
:1001000005020240000007058302400000040309C5
:100110000412010002EF0201404123368000010178
:1001200002030141726475696E6F204C4C430041BB
:10013000726475696E6F204C656F6E6172646F00DA
:1001400000000000250028002B002E0031000000D8
:100150000000240027002A002D00300004040404BD
:10016000040304050202020204030202020206065C
:100170000606060604040202020404040802011032
:1001800040804010204080408008020401804020D0
:1001900010020110801020404020A90711241FBE2A
:1001A000CFEFDAE0DEBFCDBF11E0A0E0B1E0ECE8D8
:1001B000FFE002C005900D92A632B107D9F721E009
:1001C000A6E2B1E001C01D92A539B207E1F710E047
:1001D000CEECD0E004C02197FE010E94BE07CD3CCA
:1001E000D107C9F70E94E4060C94C4070C940000E0
:1001F00090E0FC01E558FE4F2491845A9E4FFC018B
:100200008491882399F090E0880F991FFC01E25BAC
:10021000FE4FA591B491FC01E05CFE4F8591949155
:100220008FB7F894EC91E22BEC938FBF0895FC010B
:1002300080919401882311F13FB7F89482E0809374
:10024000E9002091F200822F90E01816190614F4AC
:1002500081E090E0882339F0289844E640939301A8
:100260004091F1004083222339F02091F2002111C6
:1002700003C02BE62093E8003FBF08958FEF9FEF68
:1002800008952FB7F89483E08093E9009091E800F7
:10029000892F807295FF04C09091F20080E4891B41
:1002A0002FBF089540913D0150913E0120913B01A7
:1002B00030913C0142175307B4F49091E8009570D7
:1002C000E1F39091E80092FD19C08093F1008091D4
:1002D0003D0190913E0101968F739927892B19F466
:1002E0008EEF8093E80080913D0190913E01019650
:1002F00090933E0180933D0181E0089580E0089550
:10030000EF92FF920F931F93CF93DF93F82E192F45
:10031000E62E042F81E0860F880F0E94520183E0B1
:100320000E945201CF2DD12FEC0EFD2EF11CCE15C7
:10033000DF05B9F007FF13C0FE0184910E9452014E
:10034000182F80E00E945201812321968111EFCF66
:10035000DF91CF911F910F91FF90EF9008958881C9
:10036000EDCF81E0F5CFDF92EF92FF920F931F93D5
:10037000CF93DF93D82E8A01EB017B01E40EF51EAB
:10038000CE15DF0559F0D7FE12C0FE0184910E9400
:10039000520121968111F4CF0FEF1FEFC801DF91B9
:1003A000CF911F910F91FF90EF90DF90089588817A
:1003B000EECF615030F02091F100FC0120830196D6
:1003C000F8CF289884E680939301089580913301B3
:1003D00081110DC082E080932F0184E08093300171
:1003E000109232011092310181E0809333018FE24B
:1003F00091E008950F931F93CF93DF931F92CDB792
:10040000DEB782E0898342E450E06BEC70E080E884
:100410000E94B3010E94E601DC0112960D911C912D
:100420000115110589F0D801ED91FC910280F3814D
:10043000E02DBE016F5F7F4FC801099597FD04C095
:10044000F80100851185ECCF89810F90DF91CF9164
:100450001F910F910895CF93DF931F92CDB7DEB711
:100460006983DC01ED91FC910280F381E02D41E094
:1004700050E0BE016F5F7F4F09950F90DF91CF91E4
:10048000089583E08093E9008091F200882319F0B9
:100490008AE38093E80008950E94410190E0089566
:1004A000CF93DF931F92CDB7DEB7FC01848595858E
:1004B00097FD08C02FEF3FEF358724870F90DF911E
:1004C000CF910895CE0101960E941701019719F46A
:1004D000898190E0F3CF8FEF9FEFF0CF0F931F93C1
:1004E000CF93DF931F92CDB7DEB78C01FC018485DB
:1004F000958597FF0BC0CE0101960E9417010197C9
:1005000071F4898190E0F80195878487F8018485EA
:1005100095850F90DF91CF911F910F9108958FEFE7
:100520009FEFF1CFFC018485958597FD0BC09FB7A8
:10053000F89482E08093E9008091F2009FBF90E000
:10054000019608959FB7F89482E08093E900809126
:10055000F2009FBF90E00895282F30E0F901E455A4
:10056000FF4F9491F901E558FE4F8491245A3E4F74
:10057000F9012491222309F430C09923E9F0915024
:100580009F30D0F4E92FF0E0E853FD4F0C94BE0704
:10059000F602FA02D702EE02F202DC02DC02DC0210
:1005A000FD02030307030B031103DC021503909103
:1005B00080009F7790938000E22FF0E0EE0FFF1F06
:1005C000E05CFE4FA591B4919FB7F894EC91611156
:1005D00032C080958E238C939FBF089590918000A8
:1005E0009F7DE8CF90918000977FE4CF94B59F776F
:1005F00094BDE2CF94B59F7DFBCF909190009F7703
:1006000090939000D9CF909190009F7DF9CF9091D9
:100610009000977FF5CF9091C0009F779093C00096
:10062000CBCF9091C0009F7DF9CF9091C200977F72
:100630009093C200C1CF8E2BCECF3FB7F89480915C
:100640002B0190912C01A0912D01B0912E0126B586
:10065000A89B05C02F3F19F00196A11DB11D3FBFFA
:10066000BA2FA92F982F8827BC01CD01620F711DC9
:10067000811D911D42E0660F771F881F991F4A95C3
:10068000D1F708958F929F92AF92BF92CF92DF924F
:10069000EF92FF924B015C010E941D036B017C01F4
:1006A0000E941D036C197D098E099F09683E7340E5
:1006B00081059105A8F321E0821A9108A108B108EB
:1006C00088EEC80E83E0D81EE11CF11C8114910451
:1006D000A104B10429F7FF90EF90DF90CF90BF9075
:1006E000AF909F908F9008958F929F92AF92BF92FC
:1006F000CF92DF92EF92FF920F931F93CF93DF93EE
:100700006C017B018A0180910B01882309F45CC094
:1007100080919401882309F457C08091410180FFA2
:1007200005C08091E00082608093E000E801B12C78
:100730008AEFA82E93E0892E2AE3922E209711F4B7
:10074000BB20D9F10E94410181110AC0AA94AA20BC
:10075000D9F161E070E080E090E00E944203EECFCA
:100760008C171D0611F00CF08C2F9FB7F894809217
:10077000E9002091E80025FD02C09FBFDFCF282FB0
:1007800030E0C21BD30BF701815020F04191409320
:10079000F100FACFE20EF31EBB2021F09092E800A8
:1007A000B12CEBCF8091E80085FDE7CF9092E80077
:1007B000BB24B394209709F3F3CF5D9884E680932C
:1007C0004001101611063CF081E090E0F6019383A1
:1007D000828310E000E0C801DF91CF911F910F915B
:1007E000FF90EF90DF90CF90BF90AF909F908F9051
:1007F00008951F920F920FB60F9211248F939F931B
:100800008091E1009091E100937F9093E10083FF5C
:100810000FC01092E90091E09093EB001092EC0071
:1008200092E39093ED001092940198E09093F00081
:1008300082FF22C093E09093E9009091F200992307
:1008400019F09AE39093E80090914001992341F0C8
:1008500090914001915090934001911101C05D9A97
:1008600090919301992341F090919301915090932D
:100870009301911101C0289A84FF18C08091E20071
:100880008E7E81608093E2008091E1008F7E809374
:10089000E100809141018E7E8061809341019F91B2
:1008A0008F910F900FBE0F901F90189580FFF7CF7C
:1008B0008091E2008E7E80618093E2008091E10071
:1008C0008E7E8093E100809141018E7E8160E5CF34
:1008D0001F920F920FB60F921124CF92DF92EF92D8
:1008E000FF920F931F932F933F934F935F936F93B9
:1008F0007F938F939F93AF93BF93EF93FF93CF9388
:10090000DF93CDB7DEB76C97DEBFCDBF1092E900A5
:100910008091E80083FF25C068E0CE0145960E94E3
:10092000D90182EF8093E8008D8987FF39C09091CB
:10093000E80090FFFCCF982F907609F034C19E8993
:100940004F89588D2F89F88C911131C0803861F50D
:10095000809142018093F1001092F1008EEF80931C
:10096000E8006C960FB6F894DEBF0FBECDBFDF91E6
:10097000CF91FF91EF91BF91AF919F918F917F9117
:100980006F915F914F913F912F911F910F91FF9028
:10099000EF90DF90CF900F900FBE0F901F901895A3
:1009A0009EEF9093E800C7CF1092F100D5CF913021
:1009B00059F48111D3CF4130510581F68091420124
:1009C0008D7F80934201CACF933049F48111C6CF05
:1009D0004130510519F6809142018260F2CF953085
:1009E00041F48091E80080FFFCCF20682093E30071
:1009F000B5CF963009F0A9C00B8D1C8D22E0109266
:100A0000E90010923E0110923D01F2122EC01092A8
:100A10003C0110923B010E94FA011F8299E09983E8
:100A2000FA8291E09E8390EA98879AEF99872091C5
:100A30003D0130913E01275F3F4F3C832B838D83E7
:100A40001092E90010923E0110923D0110933C017A
:100A500000933B0149E050E0BE016F5F7F4F80E0B3
:100A60000E94B3010E94FA0179CF10933C010093D8
:100A70003B010E94E601DC0112960D911C910115CB
:100A8000110509F451C1D801ED91FC910480F58163
:100A9000E02DBE016B5E7F4FC8010995009709F0FC
:100AA0003EC1F80100851185EACFF3E0FF120EC0C8
:100AB0008F89882309F440C0823061F440E860E106
:100AC0008FE291E00E948001811148CF81E2809302
:100AD000EB0047CF813029F440E86BE083E291E0FE
:100AE000F1CF833099F70E94E601DC011296ED9078
:100AF000FC908E010F5F1F4F6801E114F10479F043
:100B0000D701ED91FC910680F781E02DB801C70176
:100B10000995080F111DF701E084F184EECFD8018B
:100B20001C92F60101900020E9F73197BF016C1982
:100B30007D0940E0C601C6CF6DE071E0FB01449144
:100B400050E080E80E94B30109CF973009F4BECF8E
:100B5000983021F481E08093F10000CF993009F0C2
:100B6000FDCE837009F0B2CFEFE1F1E081E031E03A
:100B700096E32191222371F08093E9003093EB00FA
:100B8000DF0111972C912093EC009093ED008F5F83
:100B9000873079F78EE78093EA001092EA008F8918
:100BA00080939401DBCE8B8D9C8D1092E900109286
:100BB0003E0110923D0190933C0180933B01898D51
:100BC000811192C08E899D89913A49F4813209F050
:100BD0007DCF47E050E064E071E080E0B3CF913238
:100BE00009F074CF833269F48F89988DB0E0A0E06A
:100BF0008093000190930101A0930201B09303013F
:100C0000ADCE803269F48091E80082FFFCCF67E0CE
:100C100084E091E00E94D9018BEF8093E8009ECEA2
:100C2000823209F09BCE8F8980930B01EEEFFFE7B4
:100C3000859194918B3F9C4D51F1E0E0F8E08091DB
:100C4000040190910501A0910601B0910701803B3C
:100C50009440A105B105F1F480910B0180FD1AC00B
:100C6000EE3F8AE0F80789F587E797E7918380836D
:100C70008091600080933F0188E19BE00FB6F8947B
:100C8000A895809360000FBE9093600067CEEEEF52
:100C9000FAE0D5CF808191818737974709F05ECE02
:100CA000A8958091600088618093600080913F01E9
:100CB00080936000EE3F2AE0F20789F08091FE0AFF
:100CC0009091FF0A9183808349CE808191818737FB
:100CD000980751F29093FF0A8093FE0AC5CF1092B5
:100CE000FF0A1092FE0A3ACE0E94E601DC0112963B
:100CF0000D911C910115110509F4E8CED801ED9173
:100D0000FC910190F081E02DBE016B5E7F4FC80128
:100D10000995811123CEF80100851185EBCF1816B6
:100D200019060CF41BCED2CEF1E0FF12BECE61E16B
:100D300071E004CF1F920F920FB60F9211242F93E0
:100D40003F938F939F93AF93BF938091270190918F
:100D50002801A0912901B0912A013091260123E0B8
:100D6000230F2D3758F50196A11DB11D20932601A3
:100D70008093270190932801A0932901B0932A0121
:100D800080912B0190912C01A0912D01B0912E0109
:100D90000196A11DB11D80932B0190932C01A0936E
:100DA0002D01B0932E01BF91AF919F918F913F91F3
:100DB0002F910F900FBE0F901F90189526E8230FCC
:100DC0000296A11DB11DD2CF789484B5826084BDF6
:100DD00084B5816084BD85B5826085BD85B581603F
:100DE00085BD80916E00816080936E0010928100BD
:100DF0008091810082608093810080918100816078
:100E00008093810080918000816080938000809138
:100E10009100826080939100809191008160809325
:100E20009100809190008160809390008091C1003A
:100E300084608093C1008091C10082608093C10072
:100E40008091C10081608093C1008091C300816066
:100E50008093C3008091C00082608093C000809125
:100E6000C20081608093C20080917A008460809388
:100E70007A0080917A00826080937A0080917A0073
:100E8000816080937A0080917A00806880937A00F4
:100E90001092940110924201109241018091D7006A
:100EA00081608093D70080EA8093D80089B5806103
:100EB00089BD89B5826089BD09B400FEFDCF61E0BE
:100EC00070E080E090E00E9442038091D8008F7C27
:100ED00080618093D8008091E000807F8093E00063
:100EE0008091E1008E7E8093E1008DE08093E200AE
:100EF000559A209A8FEF9FEF9093500180934F0166
:100F00008EE10E94F80081E10E94F800C0E0D0E08C
:100F100060E08EE10E94AC0261E081E10E94AC02DF
:100F200064EF71E080E090E00E94420361E08EE1B6
:100F30000E94AC0260E081E10E94AC0264EF71E0CB
:100F400080E090E00E944203209711F30E9400008D
:100F5000DFCFE3E4F1E01382128288EE93E0A0E0B9
:100F6000B0E084839583A683B78380E191E0918389
:100F700080838FEF9FEF958784870895EE0FFF1F83
:0C0F80000590F491E02D0994F894FFCF47
:100F8C00FFFFFFFF00E10000000000000000000078
:100F9C002B0274034C024102920250026E0200C1F9
:060FAC008081000000003E
:00000001FF
